:020000040000fa
:080000000402040000000000ee
:020000040000fa
:100400009202040000000000cf832000807f2200c1
:100410000001880000000000050007000c00070034
:100420003c110200000000000040da000000fe0065
:100430004440a900804020000000e000030032009a
:1004400000002000a00188004440a8000000060031
:100450000043210001002000160037006200400028
:10046000e0804800910188009001ba0062004000dd
:10047000e0804800910188009002ba0062004000cc
:10048000e08048000002eb006028e10005003a002f
:100490008301e90007003300038009000059eb00e5
:1004a000040037006128e100010032000082eb0007
:1004b00005000700910188001001ba000200e00069
:1004c000e6ff3a00000005009101880080027800f4
:1004d00062004000e08048003559ba008301e9001d
:1004e000080032002559ba008301e90005003200f6
:1004f0000400e000f4ff320015d9ba008301e900de
:10050000f1ff3a000000060080007800010037008b
:100510000000e8001004e000fdff3a000100500078
:1005200000000600881f780002047800140007000d
:10053000080040004f047800000006000000fa00a8
:10054000881f7800000478003fb99700ea815700bf
:100550008000780020292000120007008000780029
:100560000000e000020035000040eb0080707c00dd
:10057000010078004f0478000080fa0000000600b7
:10058000000278008001780001003700b15978003e
:1005900002004200808f5100fcff3a000400780006
:1005a000000006006200fa00889fbe008a9fbe001d
:1005b0000004be00020578008300780060f92f0077
:1005c0000f004000af00070088979f0099979f0099
:1005d0000000eb00a09f9f009a4578000b80fb0075
:1005e0000000ea00cf04de000904e90050c2b300b5
:1005f00080cf550001003200090478000800e000b7
:100600000b003400080178008a0078001f909700e2
:100610008f9197000300010090979f000000e00079
:10062000930032002f98970008004000a09f9f0081
:100630000905450050c2b30080cf550004003200c8
:100640000b04e000e4ff3a002f9897008900370080
:100650000000eb00809f9f00f0979f00e0979f00b5
:10066000d0979f00c0979f00b0979f00c09f9f00aa
:1006700009003700e08220000080500000004000a8
:1006800021822000e08078004f98970001007000e0
:10069000c09f9f000a05e8001a4478008800fb000c
:1006a000e08220007c000700800078000000e0006d
:1006b000f0ff3a00a0c2b300804f54000e003a0091
:1006c000bf8897000180e900b08f9f0090007800fc
:1006d000b19f9f000100e00005003d000100ea001d
:1006e000b09f9f004f9897000020a000c09f9f00e0
:1006f0000a05e80010003700b19f9f00090037008d
:10070000bf989700f0ff2700808f50000400320050
:100710006a08b9000000410003004000b09f9f003c
:100720000a05e8001a01fb0003fd2f000300410049
:10073000e90f5000f2ff3600e0c2b3009a4f1000fc
:10074000040032000080eb00909f9f008a04780034
:100750001c0037008a04e800a0c2b300994f1000c3
:1007600007003a00bf8897000180e900b08f9f0022
:1007700010007800909f9f008a84e80011003700e5
:100780000000eb00909f9f00090037009f989700a2
:10079000f0ff2700808f5000040032006a08b90083
:1007a0000000410003004000909f9f008904e80082
:1007b0001901fb0003fd2f0003004100e90f500069
:1007c000f2ff3600194478008800fb0040832000c7
:1007d000310007000000e00002003a000044780009
:1007e000010037008904e800a87f9f0080c6b3009d
:1007f000804f540004003a0066405000994f1400a6
:100800000700320008003700c0c6b300804f540014
:1008100005003a00994f140003003a00654040007b
:10082000a07f9f008904e8000905e800c8fb2f00ad
:100830000f04440060f92f000f0040008085e8009d
:10084000880178001901fb00800078000b00780017
:10085000190007000000e00005003a008800780059
:100860000b0078005e0107000000e0005aff3d0029
:100870000080eb004f05be004f04be000080fa0070
:10088000000006000200fa00f1bf9f000108780096
:100890000080fa0000000600040037001004e000a9
:1008a00001003a00000005000000e80090cf1000b1
:1008b000faff3a0000000600889fbe008a1f7800f9
:1008c0000004780001027800824478000305780073
:1008d000e0c6b300804f5100d700320015003c0045
:1008e0006b405000804f5100240032000a003c0051
:1008f00070405000804f51001401320065404000ac
:10090000804f51007600320050c2b300804f51003a
:1009100027013a002301370040c6b300804f510041
:100920001b00320065404000804f510020013a001a
:100930001700370030c7b300804f51000301320069
:1009400007003c0064405000804f510064003200ba
:100950000040e800804f510015013a00ec003700dc
:1009600050c7b300804f51005d003200634040002b
:10097000804f51000e013a00590037009180e90084
:10098000010a78007800900011f079000e0137001c
:1009900028619000c0c6b300804f51000a003a00a1
:1009a0001400780064015000020a78001200be00b2
:1009b0004f88de00cf80de001202be000003780008
:1009c000800378001500370010c7b300804f510036
:1009d00002003a0094007800040037009400780088
:1009e000a0c6b300804f510005003a006880500057
:1009f000000a78003002be002003be000700370066
:100a00000180e900000a78001000780000027800f8
:100a1000cfa2de000503780086037800049cbe00a8
:100a20000694be00a860900080c6b30080cf50003e
:100a30000e00320020c6b30080cf500005003a00ff
:100a40000400fb00cf80de00010178008201780005
:100a50000a00370040c7b30080cf500003003200c7
:100a60006640400080cf500006003a000400780045
:100a7000cf80de000101780082017800009cbe007a
:100a80000294be003800be002801be00e00f5000f6
:100a9000e08f5800e00f5900e08f590003003d003f
:100aa00078009000d1c2b3000a003700081090000f
:100ab0000018a3000300320078009000b1c2b30018
:100ac000040037000008a3005600320078009000b0
:100ad00001c2b30001707d000000e8005000370043
:100ae00028619000c0c6b300804f510007003a0053
:100af0009400780064805000000a78001002be0064
:100b00000003eb00860378001500370010c7b30020
:100b1000804f510002003a00940078000400370032
:100b200094007800a0c6b300804f510005003a0041
:100b300068805000000a78003002be002003be002a
:100b4000070037000180e900000a780010007800f3
:100b500000027800050020000600200007002000a9
:100b6000049cbe000694be00a860900080c6b3003e
:100b700080cf50000e00320020c6b30080cf50005e
:100b800005003a000480fb00010020000200200064
:100b9000030020000a00370040c7b30080cf500098
:100ba000030032006640400080cf500006003a004b
:100bb0000400780001002000020020000300200053
:100bc000009cbe000294be00081090000038a300f4
:100bd000140032003800be002801be00e00f5000b3
:100be000e08f5800e00f5900e08f59000d003200ef
:100bf00080c7b30080cf54000300320080c5b3002b
:100c000080cf540007003a007800900001c3b30081
:100c100001707d008000e80089707d000080e800a0
:100c2000700498007800900000004500600498006f
:100c30008940780042003700a8609000c0c6b30029
:100c400080cf5000250032000a003c006440500074
:100c500080cf50002800320000c0e80080cf500054
:100c6000140032006840500080cf500022003a004b
:100c70000a00370040c7b30080cf50001e0032008a
:100c80006640400080cf50001b0032006940500099
:100c900080cf500018003a00060037001480e900a9
:100ca000000a780010007800485c9000084878003e
:100cb000470037001480e900000a7800100278002d
:100cc00068089000cf80de00010178008201780082
:100cd000009abe000292be003d0037001480e90079
:100ce000000a78001001780068089000cf80de00cc
:100cf0000089be00360037001480e900000a780041
:100d000010007800680c9000080878003000370068
:100d10001180e9008008780010007800cf80de00a4
:100d20000101780082017800009cbe000294be00a0
:100d300078009000000045006004980081c7b3006f
:100d400008007800f0000700210037001480e90057
:100d5000000a780090017800630498005809900018
:100d60000200e00003003d0003007800e6fd0700fc
:100d70000a0037008000eb000300780095010700af
:100d8000800078000000e00003003200680090005e
:100d9000008050000100370058089000100c9800a7
:100da0000b0037007800900002707d0006003700cd
:100db00078009000800045000904e00001003a003e
:100dc00059c2b300894878000000e8007004980018
:100dd0000000eb004f0578004f04be000000060045
:100de0000400fa00889fbe008a9fbe008c1f780016
:100df000000478000106780070089000f800900068
:100e000001005000880890000100500098089000f0
:100e100001005000a808900001005000b8089000a0
:100e200001005000c8089000810550000002220017
:100e3000a0bf9f000003230090bf9f0008109000f8
:100e40000028a30018003a000b00e0001600340050
:100e50008b04780009057800e28f54000200360008
:100e60002a002000020037000900e0000b003400d7
:100e7000c80190000a017800ec80570058009000eb
:100e800003000100500498000000e00096003200ca
:100e9000680890000a004000600c98008a845400a2
:100ea0004240a900ebff3c00780190000200e00006
:100eb0000b003400c80190008c00780058009000ae
:100ec00003000100500498000000e000860032009a
:100ed00068089000f800900001004000600c980045
:100ee000880c90000900e000150034000905780026
:100ef000e28f5400020036002a0020000200370072
:100f00000900e0000b003400c80190000a017800dd
:100f1000ee80570058009000030001005004980034
:100f20000000e00070003200680890000a004000f5
:100f3000600c98008a8454004240a900ebff3c00fa
:100f4000180990000200e0000b003400c801900076
:100f5000e800900058009000030001005004980041
:100f60000000e000600032006808900098089000df
:100f700001004000600c9800a80c90000900e000ff
:100f80001500340009057800e28f54000200360095
:100f90002a002000020037000900e0000b003400a6
:100fa000c80190000a017800ee80570058009000b8
:100fb00003000100500498000000e0004a003200e5
:100fc000680890000a004000600c98008a84540071
:100fd0004240a900ebff3c00380990000200e0000d
:100fe0000d003400e8009000180890008080400058
:100ff000c8019000580090000300010050049800c0
:101000000000e0003800320068089000b808900046
:1010100001004000600c9800c80c90000900e0003e
:101020001500340009057800e28f540002003600f4
:101030002a002000020037000900e0000b00340005
:10104000c80190000a017800ee8057005800900017
:1010500003000100500498000000e000220032006c
:10106000680890000a004000600c98008a845400d0
:101070004240a900ebff3c00081090000028a300ac
:101080001b0032000b00e000190034008b047800d4
:1010900009057800e28f5400020036002a00200083
:1010a000020037000900e0000b003400c801900086
:1010b0000a017800ec8057005800900003000100fe
:1010c000500498000000e00007003200680890001b
:1010d0000a004000600c98008a8454004240a90035
:1010e00003003400eaff37000080eb000100370006
:1010f0000000eb004f0678004f05be004f04be0015
:101100000080fa00000006006f02b000889fbe0059
:101110008a9fbe008c9fbe008e1f7800000678005c
:101120001081200080bf9f0080c5b30080cf500099
:101130000700320082002000f2b79f0003802000e9
:1011400083bf9f007740400080cf50000a003200ec
:1011500080c7b30080cf500005003200a4002000fb
:10116000f4b79f0080c5b30080cf500002003a0062
:1011700000012000f0b79f003c04be002c05be001b
:1011800040c6b30080cf50000300320065404000ed
:1011900080cf50000b003a00e00f5400e08f5c005d
:1011a000e00f5d00e08f5d0006003d006000b800cc
:1011b0006011b80008045000898458000a055900dd
:1011c0008b855900e00f5400e08f5c00e00f5d005c
:1011d000e08f5d0004003a005c0890008d01200063
:1011e0000000e0000c003200ffb097000102780020
:1011f000cfa2de0005037800860378000800be0059
:101200000a01be00080107000fba97006440780089
:10121000d0e79f007d0120007fb09700000278009a
:10122000cfa2de0005037800860378000800be0028
:101230000a01be00f5000700009ebe000296be0037
:101240000d00e900e1fc2f008f8040000087400086
:101250001a0037007fb1970002027800cfa2de00ab
:1012600005037800860378003c00be002c01be0018
:10127000f10007000205be000004be008d06e90073
:10128000ffb1970003027800cfa2de0005037800cb
:10129000860378000800be000a01be006f01070047
:1012a0003fb29700000052008fb8970060cf7800df
:1012b000089ebe000a96be000e07e9003c00be0074
:1012c0002c01be00b0b79f00c1b79f00d2b79f00ee
:1012d000e3b79f00e00f5000e08f5800e00f590087
:1012e000e08f5900020034000d00e000d9ff3c00ff
:1012f000ffb09700e88f500010003a000c109000eb
:101300000038a3000d003200f78f560006003e00a3
:10131000e2fc2f000d014100e2c07f0000c3b300da
:1013200080cf5000050032008d06e90000c3b300f5
:10133000e3fc2f008d81410080f17f007881160051
:10134000120e98006c009000e3fc2f008f8141008a
:101350008d8041008afc07001c0990005c08900009
:10136000800f510006003d0002005000000e980062
:101370000c1090000040a100001698000f003700ec
:101380000000e0000d003d000c10900074006000b3
:10139000f00f500009003a007c089000fc0090001b
:1013a000010050008c089000010050000200500025
:1013b0004240a90001003400000e98004f07780059
:1013c0004f06be004f05be004f04be006f02b100c5
:1013d00000000600820178000400370090cf100062
:1013e000050032000000e8008301e9000300e0008e
:1013f000faff3a000000eb0000000600881f7800aa
:10140000000478005001be004000be000000420011
:1014100081804a0002014b0083814b00009cbe008a
:101420000294be000400e1000588e1000690e1009e
:101430000798e10002003100680044001008e8004d
:101440004f04780000000600f4874700889fbe0024
:101450008a9fbe008c9fbe008e1f78000205be00d2
:101460000004be00d4b79f00e5b79f00f6b79f0009
:1014700087bf9f000000eb00c0b79f00b0b79f0080
:10148000a0b79f0090b79f0080b79f000d04200079
:10149000bfb097004fb09700000140000000e0008f
:1014a00014003d004f08de0000007100c0b79f002f
:1014b000ad00070001003d0012002000b000070051
:1014c00001003d0012002000b500070001003d00b2
:1014d00012002000ba000700be000700feff3a001d
:1014e000c2000700c80007000f004000c3ff07004c
:1014f000270037004f08de0000067100ccb79f00c0
:101500009900070001003d00120020009c00070028
:1015100001003d0012002000a100070001003d0075
:1015200012002000a6000700aa000700feff3a00f4
:10153000ae0007000fb297009fb297002fb397003d
:10154000bfb39700b60007000000520081805a0028
:1015500002015b0083815b0080b79f0091b79f0011
:10156000a2b79f00b3b79f000007eb00ac000700d5
:101570000020e10001a8e10002b0e10003b8e100b1
:10158000010031001e0020000e005600c0b79f0071
:101590004fb297000400e000070035001000200063
:1015a000010020006011b8000804700089847000f8
:1015b0000a0571008b8571008d06e900b4ff3a00c1
:1015c0000400e00003003d008f0007000f00400012
:1015d0008aff07004fa897000000e00004003a00cf
:1015e0000fb497009fb497002fb59700bfb5970031
:1015f000970007004f0778004f06be004f05be005a
:101600004f04be004f01b10000000600881f7800a3
:1016100018002000881f78008bff07008f87e900e3
:101620004f04780000000600801feb0086ff0700d3
:101630008f87e90000000600889fbe008a9fbe00d9
:101640008c1f78007b00070005003d002f0007007d
:1016500007003d003d0007000006eb0004003700d6
:101660003f00070002003d00300007001c00200082
:1016700077000700e5ff07000203be000002be007e
:101680000c00e00001003200280007000400be004a
:101690000601be004f0678004f05be004f04be0095
:1016a00000000600889fbe008a9fbe008c1f780045
:1016b0006000070003003d001400070006003d0025
:1016c000040037002600070003003d006000b8005a
:1016d0006011b8001d0007005d000700d2ff070081
:1016e0000203be000002be000c00e0000100320058
:1016f0000e0007000400be000601be004f06780081
:101700004f05be004f04be00000006006000b80098
:101710006011b80008045000898458000a05590077
:101720008b8559001c002000030037006000b800c2
:101730006011b80005003700e00f5200e08f5a003a
:10174000e00f5b00e08f5b00000006000402500029
:10175000858258000603590087835900000006005f
:101760000006eb00f4ff37000180400090b79f00b7
:101770000001eb008fb097000100e00000000600c0
:101780000200700090b79f000180400080b79f006a
:101790000001eb00ffa897000100e0000000060038
:1017a0000200700080b79f0001804000f0af9f00f2
:1017b0000001eb00efa897000100e0000000060028
:1017c00002007000f0af9f0001824000200007007f
:1017d000f50305008301d1000281d3008180d3008d
:1017e0000080d3008502e9000000060000027200bc
:1017f000e4af9f000804440089844c000a054d00b2
:101800008b854d00000006003fb29700cfb29700d5
:101810005fb39700efb3970000fe2f0000000600b3
:101820003fb09700cfb097005fb19700efb197003e
:10183000000006000205be000004be00e00f5000dc
:10184000e08f5800e00f5900e08f590000000600bb
:101850000800be000a01be0000000600889fbe000e
:101860008a9fbe008c1f78000205be000004be00e7
:101870000006eb00e00f5000e08f5800e00f590029
:10188000e08f590007003d006000b8006011b8000b
:1018900008045000898458000a0559008b855900b6
:1018a0001c002000e00f5200e08f5a00e00f5b00a8
:1018b000e08f5b0002003d000f0007000c00a2005b
:1018c0000800be000a01be00120007000203be00ad
:1018d0000002be000c00e00001003200060007001c
:1018e0000400be000601be004f0678004f05be0092
:1018f0004f04be00000006006000b8006011b80090
:10190000040250008582580006035900878359005d
:1019100000000600889fbe008a9fbe008c9fbe000c
:101920000404b8000506b8008904460060854e002e
:101930000606b8000a054600e0854e000706b80016
:101940008b054600040eb800890446000a854e0047
:10195000e0854d00050eb8000a0546008b854e0057
:10196000060eb8008b0546000416b8000a054600ae
:101970008b854e000516b8008b054600041eb80086
:101980008b0546000800be000a01be004f06be00df
:101990004f05be004f04be00000006000000fa0024
:1019a00010fd2f0060198800000028000019880031
:1019b0000000eb00801988000080fa00000006009b
:1019c0000000fa0090012000c01188000000eb0028
:1019d0009011880000002800801188003342a80080
:1019e0000080fa00000006000000fa000000280055
:1019f000b010880070022000a01088000080fa005b
:101a0000000006000800fa0020079800310798003f
:101a10006000b800008fbe000400370010002000f6
:101a2000010020001e0f40005e9748002e0090002d
:101a3000be009000be0f1000ae8f1800f7ff3500fb
:101a40000080fa00000006000200fa00004f780053
:101a50001e00fb00a0118800007d20000100200076
:101a6000e8ff07000080fa00000006000000fa000e
:101a700032c2bf00614060000004e000fcff3200a1
:101a800087c0a900b01180000000fb000080fa00b0
:101a9000000006000600fa00200798000000eb0096
:101aa000100798002e00900097fa0700000f7800aa
:101ab0000000eb0010079800090037002e0090008e
:101ac00010407800e0ff07002e0090000000e800c2
:101ad000200798001e0090000000e8001007980002
:101ae0001e0090009e0f5000f4ff35000080fa00a9
:101af000000006000000fa001602a80016c2bf008f
:101b0000614060000004e000fcff3a000080fa0041
:101b1000000006000000fa001642a80016c2bf002e
:101b2000644060000004e000fcff3a000080fa001e
:101b3000000006000000fa00200020004019880084
:101b40002023a800007d200001002000adff070039
:101b50002023a90020c3bf00614060000004e00012
:101b6000fcff3200001880000080fa000000060030
:101b70002000fa00605f98006e5890000080fb0023
:101b8000801f7800c0222900801f78000e00780096
:101b90006afa0700e48757006e58900012e2b70017
:101ba0000e007800bbff07008121200091407800e3
:101bb00000c8b30000c060000004e0000200320072
:101bc00090232900b3ff070018c2bf0061406000e6
:101bd0000004e000fcff3a0019c2bf000044b2005c
:101be0000004e000fcff3a000080fa00000006005c
:101bf0000600fa002007980020242900a5ff07000e
:101c00001662a80016c2bf00684060000004e00031
:101c1000fcff3a0018c2bf00624060000004e00010
:101c2000fcff320010c2bf00204798002e409000f9
:101c30000080fb00000f78002e009000e20f5000a3
:101c400023003a0016a2a9001682a80016c2bf00ff
:101c5000704060000004e000fcff3a001662a8003b
:101c600016c2bf00684060000004e000fcff3a00bc
:101c700018c2bf00624060000004e000fcff3200b8
:101c800010c2bf000080fb000000400000004000c8
:101c90000000400000004000000040000000400044
:101ca0000000400000004000800078002e409000be
:101cb0000080fb00008f400016a2a8001682a8003a
:101cc00016c2bf00704060000004e000fcff3a0054
:101cd0001e0078000080fa00000006002a00fa00ca
:101ce00020679800316798002217980033179800f2
:101cf00080ff07002e6090000040400020479800c1
:101d00002e4090009aff07003e60900098ff070069
:101d100080ff07002e1090000000e0001900320044
:101d200074ff07002e6090000080fb000000400060
:101d30000004a000204798002e4090008cff070070
:101d40003e109000aaff0700000f7800e300470054
:101d50001e007800801f780020252900801f780051
:101d600001007800f5f90700e48757006300470099
:101d700048ff070067ff07001e0078004017980023
:101d8000020037000000eb00401798004e10900052
:101d90000080fa00000006000200fa00000f780040
:101da000302629003bff0700100020009e0f100086
:101db00006003a00130020000001eb0011c5b3003b
:101dc000c0c0b300c5ff07000500370013002000a6
:101dd0000001eb0031c5b300c0c0b300bfff070076
:101de0000080fa00000006000200fa00000f7800f0
:101df0004027290027ff0700100020009e0f100039
:101e000006003a00130020000001eb0021c5b300da
:101e1000c0c0b300b1ff0700050037001300200069
:101e20000001eb0041c5b300c0c0b300abff070029
:101e30000080fa00000006000200fa00000f78009f
:101e40005028290013ff0700100020009e0f1000eb
:101e500006003a00130020000001eb0011c6b30099
:101e6000d0c0b3009dff070005003700130020001d
:101e70000001eb0021c6b300d0c0b30097ff0700fc
:101e80000080fa00000006000200fa00004f78000f
:101e900060292900fffe070070c4b3009e4f1000a8
:101ea0000300320070c6b3009e4f100008003a00d5
:101eb000402a2900f7fe0700130020000001eb0074
:101ec00011c8b300a0c1b30084ff0700370037007a
:101ed00020c5b3009e4f10000300320020c7b3009e
:101ee0009e4f100008003a00302b2900e9fe070041
:101ef000130020000001eb0021c8b300a0c1b30013
:101f000076ff07002900370090c5b3009e4f1000f0
:101f10000300320090c7b3009e4f100008003a0043
:101f2000002c2900dbfe0700130020000001eb005d
:101f300031c8b300a0c1b30068ff07001b00370021
:101f4000e0c4b3009e4f100003003200e0c6b300af
:101f50009e4f100008003a00002d2900cdfe07001a
:101f6000130020000001eb0041c8b300a0c1b30082
:101f70005aff07000d00370050c4b3009e4f1000f9
:101f80000300320050c6b3009e4f100007003a0015
:101f9000202e2900bffe0700130020000001eb00e7
:101fa0008040eb00a0c1b3004cff07000080fa00a6
:101fb000000006000200fa00000f7800202f290020
:101fc000b4fe0700100020009e0f100006003a002b
:101fd000130020000001eb0011c7b300b0c1b30033
:101fe0003eff07000e003700200020009e0f10006b
:101ff00006003a00130020000001eb0021c7b300e7
:10200000b0c1b30035ff0700050037001300200002
:102010000001eb008040eb00b0c1b3002fff0700d0
:102020000080fa00000006000000fa000000eb004b
:1020300059ff07000000eb006bff07000000eb00fa
:102040007dff070090c5b3008fff0700c030290057
:1020500090fe07000080fa00000006000000fa0071
:102060000000eb004cff07000000eb005eff0700e4
:102070000000eb0070ff070020c5b30082ff0700df
:102080006033290083fe07000080fa00000006008c
:102090000400fa00401f2000000f7800b03529002e
:1020a0007cfe0700230020001200200001c3b300c3
:1020b000e0c0b30009ff07009e0f500003003d0081
:1020c00010002000100798000c00370023002000ab
:1020d0001200200001c3b300e0c0b300fffe070000
:1020e0009e0f5000030034000000eb001007980022
:1020f0000200370030062000100798001e009000f4
:102100000080fa00000006000200fa00c036290034
:1021100060fe0700130020001200200001c1b30080
:10212000a0c0b300edfe0700fa0f500003003a0014
:1021300010002000000f78000c0037001300200072
:102140001200200001c1b300a0c0b300e3fe0700ed
:10215000fb0f500003003a000000eb00000f780076
:102160000200370030062000000f78001e007800c3
:102170000080fa00000006000200fa001038290072
:1021800044fe0700130020001200200001c2b3002b
:10219000f0c0b300d1fe070080007800a00220004c
:1021a000808f500003003a0010002000000f7800dc
:1021b0000e003700130020001200200001c2b300ff
:1021c000f0c0b300c5fe070080007800b002200018
:1021d000808f500003003a000000eb00000f7800f1
:1021e0000200370030062000000f78001e00780043
:1021f0000080fa00000006000200fa0060392900a1
:1022000024fe0700130020001200200001c4b300c8
:10221000b0c0b300b1fe07008000780010042000b9
:10222000808f500003003a0010002000000f78005b
:102230000e003700130020001200200001c4b3007c
:10224000b0c0b300a5fe0700800078002004200085
:10225000808f500003003a000000eb00000f780070
:102260000200370030062000000f78001e007800c2
:102270000080fa00000006000c00fa00c7fd07000d
:10228000cffd0700d8fd070070c4b300fefe0700b5
:102290002000200047ff07000000eb0050079800d7
:1022a0000000eb00400798000000eb0030079800aa
:1022b0000000eb00200798000000eb0010079800da
:1022c00070032000000f7800b03a2900f1fd0700ec
:1022d00018fe070010079800de0090004e009000e6
:1022e00000804000200798001e009000a2002000ff
:1022f000110009000200d8009e0f50000e003500aa
:1023000056ff0700100020002aff07001e00900063
:10231000a2002000110009000200d8009e0f50000a
:10232000faff3d0070c4b300d7fe07000000eb00c9
:1023300020ff0700450037008fff07000000e00086
:1023400007003a0038ff07008bff07000000e0009d
:10235000fdff320070c4b300cbfe07003b00370026
:1023600069ff07000000e0000d0032003e00900011
:102370000000e0000a003a001000200086fe07007e
:10238000603b2900c3fd07005e0090000000e800ec
:102390005007980010002000300798002b003700ed
:1023a0003bff07000000e0000d0032003e009000ff
:1023b0000000e0000a003a00100020008afe07003a
:1023c000703c2900b3fd07004e0090000000e800bb
:1023d0004007980010002000300798001b003700cd
:1023e00085ff07000000e000180032003e0090006a
:1023f000e10f500015003a000000eb0066fe0700f8
:10240000803d2900a3fd07000000eb0076fe0700d9
:10241000d03e29009ffd07001000200086fe070027
:10242000204029009bfd0700003e290041002000bc
:1024300074fd07000000eb007ffe0700204129002b
:1024400094fd07000000eb0030079800704229005f
:0824500090fd07009cff37001e
:020000040000fa
:020000040002f8
:04aff800befa00009d
:020000040000fa
:020000040002f8
:04affc007fbf000013
:020000040000fa
:100008006e1400006e1400006e1400006e140000e0
:100018006e1400006e1400006e1400006e140000d0
:100028006e1400006e1400006e1400006e140000c0
:100038006e1400006e1400006e1400006e140000b0
:020000040000fa
:020000040000fa
:1024580020530000656e0000743a0000202500003b
:10246800582000000d0a00000045000072720000ac
:102478006f2e0000200d00000a00000052650000c9
:102488006365000069760000696e0000672e000031
:102498002e2e0000200d00000a000000205200002f
:1024a800656300006569000076650000643a000015
:1024b80020250000642000000d0a0000004d0000e7
:1024c8006f7400006f72000020310000206100006e
:1024d80074690000766f0000210d00000a000000fa
:1024e8004d6f0000746f0000722000003220000061
:1024f80061740000697600006f2100000d0a000079
:10250800004d00006f7400006f720000203300005f
:102518002061000074690000766f0000210d000042
:102528000a0000004163000074750000612000008b
:102538004c450000447300002e0d00000a00000006
:1025480047720000656500006e2000006c6900009d
:1025580067680000742e00000d0a00000052000099
:1025680065640000206c0000696700006874000062
:102578002e0d00000a000000596500006c6c000078
:102588006f770000206c0000696700006874000025
:102598002e0d00000a00000054750000726e000045
:1025a800206f0000662000006c690000676800006a
:1025b800747300002e0d00000a0000004c69000032
:1025c8006768000074730000204500007272000004
:1025d8006f7200002e0d00000a0000004441000048
:1025e8004e470000455200002120000047650000ca
:1025f80074200000746f000020630000686f000002
:102608007070000065720000210d00000a000000d3
:10261800456d000065720000676500006e6300008c
:1026280079200000537400006f7000002120000022
:10263800416c00006c2000006d6f0000746f00009a
:10264800727300002064000065610000637400007c
:102658006976000061740000656400002e0d0000ba
:102668000a0000004669000072650000206400004e
:102678006574000065630000746500006421000053
:102688002047000065740000207400006f200000df
:102698007468000065200000636800006f70000027
:1026a80070650000722100000d0a0000004800005b
:1026b800616c00006c200000736500006e73000000
:1026c8006f7200002e2e00002e0d00000a00000080
:1026d800536500006e7300006f7200002055000003
:1026e8006c74000072610000736f00006d2e0000b2
:1026f8002e2e00000d0a000000530000656e000039
:10270800736f000072200000496e000064750000bd
:1027180074690000766f00002e2e00002e0d000058
:102728000a00000043680000656300006b69000050
:102738006e670000206300006f7500007273000070
:10274800652e00002e2e00000d0a00000042000039
:1027580065670000696e00002e2e00002e0d000037
:102768000a0000004d6f0000746f00007220000026
:102778003120000061740000697600006f2e0000af
:102788000d0a0000004d00006f7400006f72000019
:10279800203200002061000074690000766f00009c
:1027a8002e0d00000a0000004d6f0000746f00003d
:1027b8007220000031200000646500007361000091
:1027c8007469000076610000646f00000d0a000063
:1027d800004d00006f7400006f720000203200008e
:1027e80020640000657300006174000069760000d1
:1027f800616400006f0d00000a0000004d6f0000ca
:10280800746f000072200000332000006174000023
:10281800697600006f0d00000a0000004d6f00008f
:10282800746f00007220000033200000646500000f
:10283800736100007469000076610000646f000035
:102848000d0a0000004500004e4400002e2e000036
:082858002e0d00000a00000033
:020000040000fa
:102860002208000012000000020000000100020027
:10287000000400000800100000000000202b2d00c4
:1028800023300000340800000800000002000000af
:10289000686a6c00747a4c000000000000080000b8
:1028a00022000000020000003031320033343500d5
:1028b00036373800396162006364650066003000b5
:1028c0003132330034353600373839004142430065
:0c28d0004445460000000000000000002d
:020000040000fa
:0428dc000000fe00fa
:00000001FF
